{
  "abi": [
    {
      "inputs": [
        {
          "internalType": "address",
          "name": "_deployer",
          "type": "address"
        }
      ],
      "stateMutability": "nonpayable",
      "type": "constructor"
    },
    {
      "anonymous": false,
      "inputs": [
        {
          "indexed": true,
          "internalType": "address",
          "name": "owner",
          "type": "address"
        },
        {
          "indexed": true,
          "internalType": "address",
          "name": "approved",
          "type": "address"
        },
        {
          "indexed": true,
          "internalType": "uint256",
          "name": "tokenId",
          "type": "uint256"
        }
      ],
      "name": "Approval",
      "type": "event"
    },
    {
      "anonymous": false,
      "inputs": [
        {
          "indexed": true,
          "internalType": "address",
          "name": "owner",
          "type": "address"
        },
        {
          "indexed": true,
          "internalType": "address",
          "name": "operator",
          "type": "address"
        },
        {
          "indexed": false,
          "internalType": "bool",
          "name": "approved",
          "type": "bool"
        }
      ],
      "name": "ApprovalForAll",
      "type": "event"
    },
    {
      "anonymous": false,
      "inputs": [
        {
          "indexed": true,
          "internalType": "address",
          "name": "from",
          "type": "address"
        },
        {
          "indexed": true,
          "internalType": "address",
          "name": "to",
          "type": "address"
        },
        {
          "indexed": true,
          "internalType": "uint256",
          "name": "tokenId",
          "type": "uint256"
        }
      ],
      "name": "Transfer",
      "type": "event"
    },
    {
      "inputs": [
        {
          "internalType": "address",
          "name": "to",
          "type": "address"
        },
        {
          "internalType": "uint256",
          "name": "tokenId",
          "type": "uint256"
        }
      ],
      "name": "approve",
      "outputs": [],
      "stateMutability": "nonpayable",
      "type": "function"
    },
    {
      "inputs": [
        {
          "internalType": "address",
          "name": "owner",
          "type": "address"
        }
      ],
      "name": "balanceOf",
      "outputs": [
        {
          "internalType": "uint256",
          "name": "",
          "type": "uint256"
        }
      ],
      "stateMutability": "view",
      "type": "function"
    },
    {
      "inputs": [
        {
          "internalType": "uint256",
          "name": "_tokenId",
          "type": "uint256"
        }
      ],
      "name": "burn",
      "outputs": [],
      "stateMutability": "nonpayable",
      "type": "function"
    },
    {
      "inputs": [
        {
          "internalType": "uint256",
          "name": "tokenId",
          "type": "uint256"
        }
      ],
      "name": "getApproved",
      "outputs": [
        {
          "internalType": "address",
          "name": "",
          "type": "address"
        }
      ],
      "stateMutability": "view",
      "type": "function"
    },
    {
      "inputs": [
        {
          "internalType": "address",
          "name": "owner",
          "type": "address"
        },
        {
          "internalType": "address",
          "name": "operator",
          "type": "address"
        }
      ],
      "name": "isApprovedForAll",
      "outputs": [
        {
          "internalType": "bool",
          "name": "",
          "type": "bool"
        }
      ],
      "stateMutability": "view",
      "type": "function"
    },
    {
      "inputs": [
        {
          "internalType": "address",
          "name": "_to",
          "type": "address"
        }
      ],
      "name": "mint",
      "outputs": [
        {
          "internalType": "uint256",
          "name": "",
          "type": "uint256"
        }
      ],
      "stateMutability": "nonpayable",
      "type": "function"
    },
    {
      "inputs": [],
      "name": "name",
      "outputs": [
        {
          "internalType": "string",
          "name": "",
          "type": "string"
        }
      ],
      "stateMutability": "view",
      "type": "function"
    },
    {
      "inputs": [
        {
          "internalType": "uint256",
          "name": "tokenId",
          "type": "uint256"
        }
      ],
      "name": "ownerOf",
      "outputs": [
        {
          "internalType": "address",
          "name": "",
          "type": "address"
        }
      ],
      "stateMutability": "view",
      "type": "function"
    },
    {
      "inputs": [
        {
          "internalType": "address",
          "name": "from",
          "type": "address"
        },
        {
          "internalType": "address",
          "name": "to",
          "type": "address"
        },
        {
          "internalType": "uint256",
          "name": "tokenId",
          "type": "uint256"
        }
      ],
      "name": "safeTransferFrom",
      "outputs": [],
      "stateMutability": "nonpayable",
      "type": "function"
    },
    {
      "inputs": [
        {
          "internalType": "address",
          "name": "from",
          "type": "address"
        },
        {
          "internalType": "address",
          "name": "to",
          "type": "address"
        },
        {
          "internalType": "uint256",
          "name": "tokenId",
          "type": "uint256"
        },
        {
          "internalType": "bytes",
          "name": "data",
          "type": "bytes"
        }
      ],
      "name": "safeTransferFrom",
      "outputs": [],
      "stateMutability": "nonpayable",
      "type": "function"
    },
    {
      "inputs": [
        {
          "internalType": "address",
          "name": "operator",
          "type": "address"
        },
        {
          "internalType": "bool",
          "name": "approved",
          "type": "bool"
        }
      ],
      "name": "setApprovalForAll",
      "outputs": [],
      "stateMutability": "nonpayable",
      "type": "function"
    },
    {
      "inputs": [
        {
          "internalType": "address",
          "name": "_minter",
          "type": "address"
        }
      ],
      "name": "setMinter",
      "outputs": [],
      "stateMutability": "nonpayable",
      "type": "function"
    },
    {
      "inputs": [
        {
          "internalType": "bytes4",
          "name": "interfaceId",
          "type": "bytes4"
        }
      ],
      "name": "supportsInterface",
      "outputs": [
        {
          "internalType": "bool",
          "name": "",
          "type": "bool"
        }
      ],
      "stateMutability": "view",
      "type": "function"
    },
    {
      "inputs": [],
      "name": "symbol",
      "outputs": [
        {
          "internalType": "string",
          "name": "",
          "type": "string"
        }
      ],
      "stateMutability": "view",
      "type": "function"
    },
    {
      "inputs": [
        {
          "internalType": "uint256",
          "name": "tokenId",
          "type": "uint256"
        }
      ],
      "name": "tokenURI",
      "outputs": [
        {
          "internalType": "string",
          "name": "",
          "type": "string"
        }
      ],
      "stateMutability": "view",
      "type": "function"
    },
    {
      "inputs": [
        {
          "internalType": "address",
          "name": "from",
          "type": "address"
        },
        {
          "internalType": "address",
          "name": "to",
          "type": "address"
        },
        {
          "internalType": "uint256",
          "name": "tokenId",
          "type": "uint256"
        }
      ],
      "name": "transferFrom",
      "outputs": [],
      "stateMutability": "nonpayable",
      "type": "function"
    }
  ],
  "bytecode": {
    "object": "0x60806040523480156200001157600080fd5b506040516200163d3803806200163d8339810160408190526200003491620000c1565b6040518060400160405280600d81526020016c50726f6f66206f66205374617960981b81525060405180604001604052806004815260200163504f415360e01b815250816000908162000088919062000198565b50600162000097828262000198565b5050600780546001600160a01b0319166001600160a01b0393909316929092179091555062000264565b600060208284031215620000d457600080fd5b81516001600160a01b0381168114620000ec57600080fd5b9392505050565b634e487b7160e01b600052604160045260246000fd5b600181811c908216806200011e57607f821691505b6020821081036200013f57634e487b7160e01b600052602260045260246000fd5b50919050565b601f8211156200019357600081815260208120601f850160051c810160208610156200016e5750805b601f850160051c820191505b818110156200018f578281556001016200017a565b5050505b505050565b81516001600160401b03811115620001b457620001b4620000f3565b620001cc81620001c5845462000109565b8462000145565b602080601f831160018114620002045760008415620001eb5750858301515b600019600386901b1c1916600185901b1785556200018f565b600085815260208120601f198616915b82811015620002355788860151825594840194600190910190840162000214565b5085821015620002545787850151600019600388901b60f8161c191681555b5050505050600190811b01905550565b6113c980620002746000396000f3fe608060405234801561001057600080fd5b50600436106101005760003560e01c80636a62784211610097578063b88d4fde11610066578063b88d4fde1461021d578063c87b56dd14610230578063e985e9c514610243578063fca3b5aa1461027f57600080fd5b80636a627842146101ce57806370a08231146101ef57806395d89b4114610202578063a22cb4651461020a57600080fd5b806323b872dd116100d357806323b872dd1461018257806342842e0e1461019557806342966c68146101a85780636352211e146101bb57600080fd5b806301ffc9a71461010557806306fdde031461012d578063081812fc14610142578063095ea7b31461016d575b600080fd5b610118610113366004610f55565b6102af565b60405190151581526020015b60405180910390f35b610135610301565b6040516101249190610fc2565b610155610150366004610fd5565b610393565b6040516001600160a01b039091168152602001610124565b61018061017b36600461100a565b6103ba565b005b610180610190366004611034565b6104d4565b6101806101a3366004611034565b610505565b6101806101b6366004610fd5565b610520565b6101556101c9366004610fd5565b61052c565b6101e16101dc366004611070565b61058c565b604051908152602001610124565b6101e16101fd366004611070565b6105b2565b610135610638565b61018061021836600461108b565b610647565b61018061022b3660046110dd565b610656565b61013561023e366004610fd5565b61068e565b6101186102513660046111b9565b6001600160a01b03918216600090815260056020908152604080832093909416825291909152205460ff1690565b61018061028d366004611070565b600880546001600160a01b0319166001600160a01b0392909216919091179055565b60006001600160e01b031982166380ac58cd60e01b14806102e057506001600160e01b03198216635b5e139f60e01b145b806102fb57506301ffc9a760e01b6001600160e01b03198316145b92915050565b606060008054610310906111ec565b80601f016020809104026020016040519081016040528092919081815260200182805461033c906111ec565b80156103895780601f1061035e57610100808354040283529160200191610389565b820191906000526020600020905b81548152906001019060200180831161036c57829003601f168201915b5050505050905090565b600061039e82610702565b506000908152600460205260409020546001600160a01b031690565b60006103c58261052c565b9050806001600160a01b0316836001600160a01b0316036104375760405162461bcd60e51b815260206004820152602160248201527f4552433732313a20617070726f76616c20746f2063757272656e74206f776e656044820152603960f91b60648201526084015b60405180910390fd5b336001600160a01b038216148061045357506104538133610251565b6104c55760405162461bcd60e51b815260206004820152603d60248201527f4552433732313a20617070726f76652063616c6c6572206973206e6f7420746f60448201527f6b656e206f776e6572206f7220617070726f76656420666f7220616c6c000000606482015260840161042e565b6104cf8383610761565b505050565b6104de33826107cf565b6104fa5760405162461bcd60e51b815260040161042e90611226565b6104cf83838361084e565b6104cf83838360405180602001604052806000815250610656565b610529816109b2565b50565b6000818152600260205260408120546001600160a01b0316806102fb5760405162461bcd60e51b8152602060048201526018602482015277115490cdcc8c4e881a5b9d985b1a59081d1bdad95b88125160421b604482015260640161042e565b60008061059860065490565b90506105a48382610a47565b6102fb600680546001019055565b60006001600160a01b03821661061c5760405162461bcd60e51b815260206004820152602960248201527f4552433732313a2061646472657373207a65726f206973206e6f7420612076616044820152683634b21037bbb732b960b91b606482015260840161042e565b506001600160a01b031660009081526003602052604090205490565b606060018054610310906111ec565b610652338383610bd2565b5050565b61066033836107cf565b61067c5760405162461bcd60e51b815260040161042e90611226565b61068884848484610ca0565b50505050565b606061069982610702565b60006106b060408051602081019091526000815290565b905060008151116106d057604051806020016040528060008152506106fb565b806106da84610cd3565b6040516020016106eb929190611273565b6040516020818303038152906040525b9392505050565b6000818152600260205260409020546001600160a01b03166105295760405162461bcd60e51b8152602060048201526018602482015277115490cdcc8c4e881a5b9d985b1a59081d1bdad95b88125160421b604482015260640161042e565b600081815260046020526040902080546001600160a01b0319166001600160a01b03841690811790915581906107968261052c565b6001600160a01b03167f8c5be1e5ebec7d5bd14f71427d1e84f3dd0314c0f7b2291e5b200ac8c7c3b92560405160405180910390a45050565b6000806107db8361052c565b9050806001600160a01b0316846001600160a01b0316148061082257506001600160a01b0380821660009081526005602090815260408083209388168352929052205460ff165b806108465750836001600160a01b031661083b84610393565b6001600160a01b0316145b949350505050565b826001600160a01b03166108618261052c565b6001600160a01b0316146108875760405162461bcd60e51b815260040161042e906112a2565b6001600160a01b0382166108e95760405162461bcd60e51b8152602060048201526024808201527f4552433732313a207472616e7366657220746f20746865207a65726f206164646044820152637265737360e01b606482015260840161042e565b826001600160a01b03166108fc8261052c565b6001600160a01b0316146109225760405162461bcd60e51b815260040161042e906112a2565b600081815260046020908152604080832080546001600160a01b03199081169091556001600160a01b0387811680865260038552838620805460001901905590871680865283862080546001019055868652600290945282852080549092168417909155905184937fddf252ad1be2c89b69c2b068fc378daa952ba7f163c4a11628f55a4df523b3ef91a4505050565b60006109bd8261052c565b90506109c88261052c565b600083815260046020908152604080832080546001600160a01b03199081169091556001600160a01b0385168085526003845282852080546000190190558785526002909352818420805490911690555192935084927fddf252ad1be2c89b69c2b068fc378daa952ba7f163c4a11628f55a4df523b3ef908390a45050565b6001600160a01b038216610a9d5760405162461bcd60e51b815260206004820181905260248201527f4552433732313a206d696e7420746f20746865207a65726f2061646472657373604482015260640161042e565b6000818152600260205260409020546001600160a01b031615610b025760405162461bcd60e51b815260206004820152601c60248201527f4552433732313a20746f6b656e20616c7265616479206d696e74656400000000604482015260640161042e565b6000818152600260205260409020546001600160a01b031615610b675760405162461bcd60e51b815260206004820152601c60248201527f4552433732313a20746f6b656e20616c7265616479206d696e74656400000000604482015260640161042e565b6001600160a01b038216600081815260036020908152604080832080546001019055848352600290915280822080546001600160a01b0319168417905551839291907fddf252ad1be2c89b69c2b068fc378daa952ba7f163c4a11628f55a4df523b3ef908290a45050565b816001600160a01b0316836001600160a01b031603610c335760405162461bcd60e51b815260206004820152601960248201527f4552433732313a20617070726f766520746f2063616c6c657200000000000000604482015260640161042e565b6001600160a01b03838116600081815260056020908152604080832094871680845294825291829020805460ff191686151590811790915591519182527f17307eab39ab6107e8899845ad3d59bd9653f200f220920489ca2b5937696c31910160405180910390a3505050565b610cab84848461084e565b610cb784848484610d66565b6106885760405162461bcd60e51b815260040161042e906112e7565b60606000610ce083610e67565b600101905060008167ffffffffffffffff811115610d0057610d006110c7565b6040519080825280601f01601f191660200182016040528015610d2a576020820181803683370190505b5090508181016020015b600019016f181899199a1a9b1b9c1cb0b131b232b360811b600a86061a8153600a8504945084610d3457509392505050565b60006001600160a01b0384163b15610e5c57604051630a85bd0160e11b81526001600160a01b0385169063150b7a0290610daa903390899088908890600401611339565b6020604051808303816000875af1925050508015610de5575060408051601f3d908101601f19168201909252610de291810190611376565b60015b610e42573d808015610e13576040519150601f19603f3d011682016040523d82523d6000602084013e610e18565b606091505b508051600003610e3a5760405162461bcd60e51b815260040161042e906112e7565b805181602001fd5b6001600160e01b031916630a85bd0160e11b149050610846565b506001949350505050565b60008072184f03e93ff9f4daa797ed6e38ed64bf6a1f0160401b8310610ea65772184f03e93ff9f4daa797ed6e38ed64bf6a1f0160401b830492506040015b6d04ee2d6d415b85acef81000000008310610ed2576d04ee2d6d415b85acef8100000000830492506020015b662386f26fc100008310610ef057662386f26fc10000830492506010015b6305f5e1008310610f08576305f5e100830492506008015b6127108310610f1c57612710830492506004015b60648310610f2e576064830492506002015b600a83106102fb5760010192915050565b6001600160e01b03198116811461052957600080fd5b600060208284031215610f6757600080fd5b81356106fb81610f3f565b60005b83811015610f8d578181015183820152602001610f75565b50506000910152565b60008151808452610fae816020860160208601610f72565b601f01601f19169290920160200192915050565b6020815260006106fb6020830184610f96565b600060208284031215610fe757600080fd5b5035919050565b80356001600160a01b038116811461100557600080fd5b919050565b6000806040838503121561101d57600080fd5b61102683610fee565b946020939093013593505050565b60008060006060848603121561104957600080fd5b61105284610fee565b925061106060208501610fee565b9150604084013590509250925092565b60006020828403121561108257600080fd5b6106fb82610fee565b6000806040838503121561109e57600080fd5b6110a783610fee565b9150602083013580151581146110bc57600080fd5b809150509250929050565b634e487b7160e01b600052604160045260246000fd5b600080600080608085870312156110f357600080fd5b6110fc85610fee565b935061110a60208601610fee565b925060408501359150606085013567ffffffffffffffff8082111561112e57600080fd5b818701915087601f83011261114257600080fd5b813581811115611154576111546110c7565b604051601f8201601f19908116603f0116810190838211818310171561117c5761117c6110c7565b816040528281528a602084870101111561119557600080fd5b82602086016020830137600060208483010152809550505050505092959194509250565b600080604083850312156111cc57600080fd5b6111d583610fee565b91506111e360208401610fee565b90509250929050565b600181811c9082168061120057607f821691505b60208210810361122057634e487b7160e01b600052602260045260246000fd5b50919050565b6020808252602d908201527f4552433732313a2063616c6c6572206973206e6f7420746f6b656e206f776e6560408201526c1c881bdc88185c1c1c9bdd9959609a1b606082015260800190565b60008351611285818460208801610f72565b835190830190611299818360208801610f72565b01949350505050565b60208082526025908201527f4552433732313a207472616e736665722066726f6d20696e636f72726563742060408201526437bbb732b960d91b606082015260800190565b60208082526032908201527f4552433732313a207472616e7366657220746f206e6f6e20455243373231526560408201527131b2b4bb32b91034b6b83632b6b2b73a32b960711b606082015260800190565b6001600160a01b038581168252841660208201526040810183905260806060820181905260009061136c90830184610f96565b9695505050505050565b60006020828403121561138857600080fd5b81516106fb81610f3f56fea26469706673582212207155ea5cc0366876c86ffcd9d98734b9542d697438beab2dbf5a52acaca7e86664736f6c63430008100033",
    "linkReferences": {}
  },
  "methodIdentifiers": {
    "approve(address,uint256)": "095ea7b3",
    "balanceOf(address)": "70a08231",
    "burn(uint256)": "42966c68",
    "getApproved(uint256)": "081812fc",
    "isApprovedForAll(address,address)": "e985e9c5",
    "mint(address)": "6a627842",
    "name()": "06fdde03",
    "ownerOf(uint256)": "6352211e",
    "safeTransferFrom(address,address,uint256)": "42842e0e",
    "safeTransferFrom(address,address,uint256,bytes)": "b88d4fde",
    "setApprovalForAll(address,bool)": "a22cb465",
    "setMinter(address)": "fca3b5aa",
    "supportsInterface(bytes4)": "01ffc9a7",
    "symbol()": "95d89b41",
    "tokenURI(uint256)": "c87b56dd",
    "transferFrom(address,address,uint256)": "23b872dd"
  },
  "id": 23
}