{
  "abi": [
    {
      "inputs": [
        {
          "internalType": "address",
          "name": "_deployer",
          "type": "address"
        }
      ],
      "stateMutability": "nonpayable",
      "type": "constructor"
    },
    {
      "anonymous": false,
      "inputs": [
        {
          "indexed": true,
          "internalType": "address",
          "name": "owner",
          "type": "address"
        },
        {
          "indexed": true,
          "internalType": "address",
          "name": "approved",
          "type": "address"
        },
        {
          "indexed": true,
          "internalType": "uint256",
          "name": "tokenId",
          "type": "uint256"
        }
      ],
      "name": "Approval",
      "type": "event"
    },
    {
      "anonymous": false,
      "inputs": [
        {
          "indexed": true,
          "internalType": "address",
          "name": "owner",
          "type": "address"
        },
        {
          "indexed": true,
          "internalType": "address",
          "name": "operator",
          "type": "address"
        },
        {
          "indexed": false,
          "internalType": "bool",
          "name": "approved",
          "type": "bool"
        }
      ],
      "name": "ApprovalForAll",
      "type": "event"
    },
    {
      "anonymous": false,
      "inputs": [
        {
          "indexed": true,
          "internalType": "address",
          "name": "from",
          "type": "address"
        },
        {
          "indexed": true,
          "internalType": "address",
          "name": "to",
          "type": "address"
        },
        {
          "indexed": true,
          "internalType": "uint256",
          "name": "tokenId",
          "type": "uint256"
        }
      ],
      "name": "Transfer",
      "type": "event"
    },
    {
      "inputs": [
        {
          "internalType": "address",
          "name": "to",
          "type": "address"
        },
        {
          "internalType": "uint256",
          "name": "tokenId",
          "type": "uint256"
        }
      ],
      "name": "approve",
      "outputs": [],
      "stateMutability": "nonpayable",
      "type": "function"
    },
    {
      "inputs": [
        {
          "internalType": "address",
          "name": "owner",
          "type": "address"
        }
      ],
      "name": "balanceOf",
      "outputs": [
        {
          "internalType": "uint256",
          "name": "",
          "type": "uint256"
        }
      ],
      "stateMutability": "view",
      "type": "function"
    },
    {
      "inputs": [
        {
          "internalType": "uint256",
          "name": "_tokenId",
          "type": "uint256"
        }
      ],
      "name": "burn",
      "outputs": [],
      "stateMutability": "nonpayable",
      "type": "function"
    },
    {
      "inputs": [
        {
          "internalType": "uint256",
          "name": "tokenId",
          "type": "uint256"
        }
      ],
      "name": "getApproved",
      "outputs": [
        {
          "internalType": "address",
          "name": "",
          "type": "address"
        }
      ],
      "stateMutability": "view",
      "type": "function"
    },
    {
      "inputs": [
        {
          "internalType": "address",
          "name": "owner",
          "type": "address"
        },
        {
          "internalType": "address",
          "name": "operator",
          "type": "address"
        }
      ],
      "name": "isApprovedForAll",
      "outputs": [
        {
          "internalType": "bool",
          "name": "",
          "type": "bool"
        }
      ],
      "stateMutability": "view",
      "type": "function"
    },
    {
      "inputs": [
        {
          "internalType": "address",
          "name": "_to",
          "type": "address"
        },
        {
          "internalType": "uint256",
          "name": "_expiryTimestamp",
          "type": "uint256"
        }
      ],
      "name": "mint",
      "outputs": [
        {
          "internalType": "uint256",
          "name": "",
          "type": "uint256"
        }
      ],
      "stateMutability": "nonpayable",
      "type": "function"
    },
    {
      "inputs": [],
      "name": "name",
      "outputs": [
        {
          "internalType": "string",
          "name": "",
          "type": "string"
        }
      ],
      "stateMutability": "view",
      "type": "function"
    },
    {
      "inputs": [
        {
          "internalType": "uint256",
          "name": "tokenId",
          "type": "uint256"
        }
      ],
      "name": "ownerOf",
      "outputs": [
        {
          "internalType": "address",
          "name": "",
          "type": "address"
        }
      ],
      "stateMutability": "view",
      "type": "function"
    },
    {
      "inputs": [
        {
          "internalType": "address",
          "name": "from",
          "type": "address"
        },
        {
          "internalType": "address",
          "name": "to",
          "type": "address"
        },
        {
          "internalType": "uint256",
          "name": "tokenId",
          "type": "uint256"
        }
      ],
      "name": "safeTransferFrom",
      "outputs": [],
      "stateMutability": "nonpayable",
      "type": "function"
    },
    {
      "inputs": [
        {
          "internalType": "address",
          "name": "from",
          "type": "address"
        },
        {
          "internalType": "address",
          "name": "to",
          "type": "address"
        },
        {
          "internalType": "uint256",
          "name": "tokenId",
          "type": "uint256"
        },
        {
          "internalType": "bytes",
          "name": "data",
          "type": "bytes"
        }
      ],
      "name": "safeTransferFrom",
      "outputs": [],
      "stateMutability": "nonpayable",
      "type": "function"
    },
    {
      "inputs": [
        {
          "internalType": "address",
          "name": "operator",
          "type": "address"
        },
        {
          "internalType": "bool",
          "name": "approved",
          "type": "bool"
        }
      ],
      "name": "setApprovalForAll",
      "outputs": [],
      "stateMutability": "nonpayable",
      "type": "function"
    },
    {
      "inputs": [
        {
          "internalType": "address",
          "name": "_minter",
          "type": "address"
        }
      ],
      "name": "setMinter",
      "outputs": [],
      "stateMutability": "nonpayable",
      "type": "function"
    },
    {
      "inputs": [
        {
          "internalType": "bytes4",
          "name": "interfaceId",
          "type": "bytes4"
        }
      ],
      "name": "supportsInterface",
      "outputs": [
        {
          "internalType": "bool",
          "name": "",
          "type": "bool"
        }
      ],
      "stateMutability": "view",
      "type": "function"
    },
    {
      "inputs": [],
      "name": "symbol",
      "outputs": [
        {
          "internalType": "string",
          "name": "",
          "type": "string"
        }
      ],
      "stateMutability": "view",
      "type": "function"
    },
    {
      "inputs": [
        {
          "internalType": "uint256",
          "name": "tokenId",
          "type": "uint256"
        }
      ],
      "name": "tokenURI",
      "outputs": [
        {
          "internalType": "string",
          "name": "",
          "type": "string"
        }
      ],
      "stateMutability": "view",
      "type": "function"
    },
    {
      "inputs": [
        {
          "internalType": "address",
          "name": "from",
          "type": "address"
        },
        {
          "internalType": "address",
          "name": "to",
          "type": "address"
        },
        {
          "internalType": "uint256",
          "name": "tokenId",
          "type": "uint256"
        }
      ],
      "name": "transferFrom",
      "outputs": [],
      "stateMutability": "nonpayable",
      "type": "function"
    }
  ],
  "bytecode": {
    "object": "0x60806040523480156200001157600080fd5b506040516200169e3803806200169e8339810160408190526200003491620000bc565b604051806040016040528060078152602001665265736572766560c81b815250604051806040016040528060058152602001642922a9a2a960d91b815250816000908162000083919062000193565b50600162000092828262000193565b5050600780546001600160a01b0319166001600160a01b039390931692909217909155506200025f565b600060208284031215620000cf57600080fd5b81516001600160a01b0381168114620000e757600080fd5b9392505050565b634e487b7160e01b600052604160045260246000fd5b600181811c908216806200011957607f821691505b6020821081036200013a57634e487b7160e01b600052602260045260246000fd5b50919050565b601f8211156200018e57600081815260208120601f850160051c81016020861015620001695750805b601f850160051c820191505b818110156200018a5782815560010162000175565b5050505b505050565b81516001600160401b03811115620001af57620001af620000ee565b620001c781620001c0845462000104565b8462000140565b602080601f831160018114620001ff5760008415620001e65750858301515b600019600386901b1c1916600185901b1785556200018a565b600085815260208120601f198616915b8281101562000230578886015182559484019460019091019084016200020f565b50858210156200024f5787850151600019600388901b60f8161c191681555b5050505050600190811b01905550565b61142f806200026f6000396000f3fe608060405234801561001057600080fd5b50600436106101005760003560e01c80636352211e11610097578063b88d4fde11610066578063b88d4fde1461021d578063c87b56dd14610230578063e985e9c514610243578063fca3b5aa1461027f57600080fd5b80636352211e146101dc57806370a08231146101ef57806395d89b4114610202578063a22cb4651461020a57600080fd5b806323b872dd116100d357806323b872dd1461018257806340c10f191461019557806342842e0e146101b657806342966c68146101c957600080fd5b806301ffc9a71461010557806306fdde031461012d578063081812fc14610142578063095ea7b31461016d575b600080fd5b610118610113366004610fbb565b610292565b60405190151581526020015b60405180910390f35b6101356102e4565b6040516101249190611028565b61015561015036600461103b565b610376565b6040516001600160a01b039091168152602001610124565b61018061017b366004611070565b61039d565b005b61018061019036600461109a565b6104b7565b6101a86101a3366004611070565b6104e8565b604051908152602001610124565b6101806101c436600461109a565b610527565b6101806101d736600461103b565b610542565b6101556101ea36600461103b565b61054e565b6101a86101fd3660046110d6565b6105ae565b610135610634565b6101806102183660046110f1565b610643565b61018061022b366004611143565b610652565b61013561023e36600461103b565b61068a565b61011861025136600461121f565b6001600160a01b03918216600090815260056020908152604080832093909416825291909152205460ff1690565b61018061028d3660046110d6565b6106fe565b60006001600160e01b031982166380ac58cd60e01b14806102c357506001600160e01b03198216635b5e139f60e01b145b806102de57506301ffc9a760e01b6001600160e01b03198316145b92915050565b6060600080546102f390611252565b80601f016020809104026020016040519081016040528092919081815260200182805461031f90611252565b801561036c5780601f106103415761010080835404028352916020019161036c565b820191906000526020600020905b81548152906001019060200180831161034f57829003601f168201915b5050505050905090565b600061038182610768565b506000908152600460205260409020546001600160a01b031690565b60006103a88261054e565b9050806001600160a01b0316836001600160a01b03160361041a5760405162461bcd60e51b815260206004820152602160248201527f4552433732313a20617070726f76616c20746f2063757272656e74206f776e656044820152603960f91b60648201526084015b60405180910390fd5b336001600160a01b038216148061043657506104368133610251565b6104a85760405162461bcd60e51b815260206004820152603d60248201527f4552433732313a20617070726f76652063616c6c6572206973206e6f7420746f60448201527f6b656e206f776e6572206f7220617070726f76656420666f7220616c6c0000006064820152608401610411565b6104b283836107c7565b505050565b6104c13382610835565b6104dd5760405162461bcd60e51b81526004016104119061128c565b6104b28383836108b4565b60006104f8600680546001019055565b600061050360065490565b905061050f8482610a18565b60008181526009602052604090209290925550919050565b6104b283838360405180602001604052806000815250610652565b61054b81610ba3565b50565b6000818152600260205260408120546001600160a01b0316806102de5760405162461bcd60e51b8152602060048201526018602482015277115490cdcc8c4e881a5b9d985b1a59081d1bdad95b88125160421b6044820152606401610411565b60006001600160a01b0382166106185760405162461bcd60e51b815260206004820152602960248201527f4552433732313a2061646472657373207a65726f206973206e6f7420612076616044820152683634b21037bbb732b960b91b6064820152608401610411565b506001600160a01b031660009081526003602052604090205490565b6060600180546102f390611252565b61064e338383610c38565b5050565b61065c3383610835565b6106785760405162461bcd60e51b81526004016104119061128c565b61068484848484610d06565b50505050565b606061069582610768565b60006106ac60408051602081019091526000815290565b905060008151116106cc57604051806020016040528060008152506106f7565b806106d684610d39565b6040516020016106e79291906112d9565b6040516020818303038152906040525b9392505050565b6007546001600160a01b031633146107465760405162461bcd60e51b815260206004820152600b60248201526a37b7363c9036b4b73a32b960a91b6044820152606401610411565b600880546001600160a01b0319166001600160a01b0392909216919091179055565b6000818152600260205260409020546001600160a01b031661054b5760405162461bcd60e51b8152602060048201526018602482015277115490cdcc8c4e881a5b9d985b1a59081d1bdad95b88125160421b6044820152606401610411565b600081815260046020526040902080546001600160a01b0319166001600160a01b03841690811790915581906107fc8261054e565b6001600160a01b03167f8c5be1e5ebec7d5bd14f71427d1e84f3dd0314c0f7b2291e5b200ac8c7c3b92560405160405180910390a45050565b6000806108418361054e565b9050806001600160a01b0316846001600160a01b0316148061088857506001600160a01b0380821660009081526005602090815260408083209388168352929052205460ff165b806108ac5750836001600160a01b03166108a184610376565b6001600160a01b0316145b949350505050565b826001600160a01b03166108c78261054e565b6001600160a01b0316146108ed5760405162461bcd60e51b815260040161041190611308565b6001600160a01b03821661094f5760405162461bcd60e51b8152602060048201526024808201527f4552433732313a207472616e7366657220746f20746865207a65726f206164646044820152637265737360e01b6064820152608401610411565b826001600160a01b03166109628261054e565b6001600160a01b0316146109885760405162461bcd60e51b815260040161041190611308565b600081815260046020908152604080832080546001600160a01b03199081169091556001600160a01b0387811680865260038552838620805460001901905590871680865283862080546001019055868652600290945282852080549092168417909155905184937fddf252ad1be2c89b69c2b068fc378daa952ba7f163c4a11628f55a4df523b3ef91a4505050565b6001600160a01b038216610a6e5760405162461bcd60e51b815260206004820181905260248201527f4552433732313a206d696e7420746f20746865207a65726f20616464726573736044820152606401610411565b6000818152600260205260409020546001600160a01b031615610ad35760405162461bcd60e51b815260206004820152601c60248201527f4552433732313a20746f6b656e20616c7265616479206d696e746564000000006044820152606401610411565b6000818152600260205260409020546001600160a01b031615610b385760405162461bcd60e51b815260206004820152601c60248201527f4552433732313a20746f6b656e20616c7265616479206d696e746564000000006044820152606401610411565b6001600160a01b038216600081815260036020908152604080832080546001019055848352600290915280822080546001600160a01b0319168417905551839291907fddf252ad1be2c89b69c2b068fc378daa952ba7f163c4a11628f55a4df523b3ef908290a45050565b6000610bae8261054e565b9050610bb98261054e565b600083815260046020908152604080832080546001600160a01b03199081169091556001600160a01b0385168085526003845282852080546000190190558785526002909352818420805490911690555192935084927fddf252ad1be2c89b69c2b068fc378daa952ba7f163c4a11628f55a4df523b3ef908390a45050565b816001600160a01b0316836001600160a01b031603610c995760405162461bcd60e51b815260206004820152601960248201527f4552433732313a20617070726f766520746f2063616c6c6572000000000000006044820152606401610411565b6001600160a01b03838116600081815260056020908152604080832094871680845294825291829020805460ff191686151590811790915591519182527f17307eab39ab6107e8899845ad3d59bd9653f200f220920489ca2b5937696c31910160405180910390a3505050565b610d118484846108b4565b610d1d84848484610dcc565b6106845760405162461bcd60e51b81526004016104119061134d565b60606000610d4683610ecd565b600101905060008167ffffffffffffffff811115610d6657610d6661112d565b6040519080825280601f01601f191660200182016040528015610d90576020820181803683370190505b5090508181016020015b600019016f181899199a1a9b1b9c1cb0b131b232b360811b600a86061a8153600a8504945084610d9a57509392505050565b60006001600160a01b0384163b15610ec257604051630a85bd0160e11b81526001600160a01b0385169063150b7a0290610e1090339089908890889060040161139f565b6020604051808303816000875af1925050508015610e4b575060408051601f3d908101601f19168201909252610e48918101906113dc565b60015b610ea8573d808015610e79576040519150601f19603f3d011682016040523d82523d6000602084013e610e7e565b606091505b508051600003610ea05760405162461bcd60e51b81526004016104119061134d565b805181602001fd5b6001600160e01b031916630a85bd0160e11b1490506108ac565b506001949350505050565b60008072184f03e93ff9f4daa797ed6e38ed64bf6a1f0160401b8310610f0c5772184f03e93ff9f4daa797ed6e38ed64bf6a1f0160401b830492506040015b6d04ee2d6d415b85acef81000000008310610f38576d04ee2d6d415b85acef8100000000830492506020015b662386f26fc100008310610f5657662386f26fc10000830492506010015b6305f5e1008310610f6e576305f5e100830492506008015b6127108310610f8257612710830492506004015b60648310610f94576064830492506002015b600a83106102de5760010192915050565b6001600160e01b03198116811461054b57600080fd5b600060208284031215610fcd57600080fd5b81356106f781610fa5565b60005b83811015610ff3578181015183820152602001610fdb565b50506000910152565b60008151808452611014816020860160208601610fd8565b601f01601f19169290920160200192915050565b6020815260006106f76020830184610ffc565b60006020828403121561104d57600080fd5b5035919050565b80356001600160a01b038116811461106b57600080fd5b919050565b6000806040838503121561108357600080fd5b61108c83611054565b946020939093013593505050565b6000806000606084860312156110af57600080fd5b6110b884611054565b92506110c660208501611054565b9150604084013590509250925092565b6000602082840312156110e857600080fd5b6106f782611054565b6000806040838503121561110457600080fd5b61110d83611054565b91506020830135801515811461112257600080fd5b809150509250929050565b634e487b7160e01b600052604160045260246000fd5b6000806000806080858703121561115957600080fd5b61116285611054565b935061117060208601611054565b925060408501359150606085013567ffffffffffffffff8082111561119457600080fd5b818701915087601f8301126111a857600080fd5b8135818111156111ba576111ba61112d565b604051601f8201601f19908116603f011681019083821181831017156111e2576111e261112d565b816040528281528a60208487010111156111fb57600080fd5b82602086016020830137600060208483010152809550505050505092959194509250565b6000806040838503121561123257600080fd5b61123b83611054565b915061124960208401611054565b90509250929050565b600181811c9082168061126657607f821691505b60208210810361128657634e487b7160e01b600052602260045260246000fd5b50919050565b6020808252602d908201527f4552433732313a2063616c6c6572206973206e6f7420746f6b656e206f776e6560408201526c1c881bdc88185c1c1c9bdd9959609a1b606082015260800190565b600083516112eb818460208801610fd8565b8351908301906112ff818360208801610fd8565b01949350505050565b60208082526025908201527f4552433732313a207472616e736665722066726f6d20696e636f72726563742060408201526437bbb732b960d91b606082015260800190565b60208082526032908201527f4552433732313a207472616e7366657220746f206e6f6e20455243373231526560408201527131b2b4bb32b91034b6b83632b6b2b73a32b960711b606082015260800190565b6001600160a01b03858116825284166020820152604081018390526080606082018190526000906113d290830184610ffc565b9695505050505050565b6000602082840312156113ee57600080fd5b81516106f781610fa556fea26469706673582212202310fb2bf89f8062c3cd0ac76e78952f8c492f4d1a052170b33e3f973dbe6d8664736f6c63430008100033",
    "linkReferences": {}
  },
  "methodIdentifiers": {
    "approve(address,uint256)": "095ea7b3",
    "balanceOf(address)": "70a08231",
    "burn(uint256)": "42966c68",
    "getApproved(uint256)": "081812fc",
    "isApprovedForAll(address,address)": "e985e9c5",
    "mint(address,uint256)": "40c10f19",
    "name()": "06fdde03",
    "ownerOf(uint256)": "6352211e",
    "safeTransferFrom(address,address,uint256)": "42842e0e",
    "safeTransferFrom(address,address,uint256,bytes)": "b88d4fde",
    "setApprovalForAll(address,bool)": "a22cb465",
    "setMinter(address)": "fca3b5aa",
    "supportsInterface(bytes4)": "01ffc9a7",
    "symbol()": "95d89b41",
    "tokenURI(uint256)": "c87b56dd",
    "transferFrom(address,address,uint256)": "23b872dd"
  },
  "id": 24
}