{
  "abi": [
    {
      "anonymous": false,
      "inputs": [
        {
          "indexed": true,
          "internalType": "uint256",
          "name": "tokenId",
          "type": "uint256"
        },
        {
          "indexed": true,
          "internalType": "address",
          "name": "user",
          "type": "address"
        }
      ],
      "name": "BurnReservation",
      "type": "event"
    },
    {
      "anonymous": false,
      "inputs": [
        {
          "indexed": true,
          "internalType": "address",
          "name": "previousOwner",
          "type": "address"
        },
        {
          "indexed": true,
          "internalType": "address",
          "name": "newOwner",
          "type": "address"
        },
        {
          "indexed": true,
          "internalType": "uint256",
          "name": "tokenId",
          "type": "uint256"
        }
      ],
      "name": "ChangeReservationOwner",
      "type": "event"
    },
    {
      "anonymous": false,
      "inputs": [
        {
          "indexed": true,
          "internalType": "address",
          "name": "hotel",
          "type": "address"
        }
      ],
      "name": "HotelAdded",
      "type": "event"
    },
    {
      "anonymous": false,
      "inputs": [
        {
          "indexed": true,
          "internalType": "address",
          "name": "previousOwner",
          "type": "address"
        },
        {
          "indexed": true,
          "internalType": "address",
          "name": "newOwner",
          "type": "address"
        }
      ],
      "name": "OwnershipTransferred",
      "type": "event"
    },
    {
      "anonymous": false,
      "inputs": [
        {
          "indexed": true,
          "internalType": "address",
          "name": "hotel",
          "type": "address"
        },
        {
          "indexed": true,
          "internalType": "address",
          "name": "user",
          "type": "address"
        },
        {
          "indexed": true,
          "internalType": "uint256",
          "name": "tokenId",
          "type": "uint256"
        }
      ],
      "name": "ReservationSuccessfully",
      "type": "event"
    },
    {
      "inputs": [
        {
          "internalType": "address",
          "name": "_hotel",
          "type": "address"
        }
      ],
      "name": "addHotel",
      "outputs": [],
      "stateMutability": "nonpayable",
      "type": "function"
    },
    {
      "inputs": [
        {
          "internalType": "address",
          "name": "_hotel",
          "type": "address"
        }
      ],
      "name": "balanceOfHotel",
      "outputs": [
        {
          "internalType": "uint256",
          "name": "",
          "type": "uint256"
        }
      ],
      "stateMutability": "view",
      "type": "function"
    },
    {
      "inputs": [
        {
          "internalType": "uint256",
          "name": "_tokenId",
          "type": "uint256"
        },
        {
          "internalType": "address",
          "name": "_userId",
          "type": "address"
        }
      ],
      "name": "burnReservation",
      "outputs": [],
      "stateMutability": "nonpayable",
      "type": "function"
    },
    {
      "inputs": [
        {
          "internalType": "address",
          "name": "_previousOwner",
          "type": "address"
        },
        {
          "internalType": "uint256",
          "name": "_tokenId",
          "type": "uint256"
        },
        {
          "internalType": "uint256",
          "name": "_amount",
          "type": "uint256"
        }
      ],
      "name": "changeReservationOwner",
      "outputs": [],
      "stateMutability": "payable",
      "type": "function"
    },
    {
      "inputs": [
        {
          "internalType": "address",
          "name": "_hotel",
          "type": "address"
        }
      ],
      "name": "getHotelTransactions",
      "outputs": [
        {
          "internalType": "uint256",
          "name": "",
          "type": "uint256"
        }
      ],
      "stateMutability": "view",
      "type": "function"
    },
    {
      "inputs": [],
      "name": "getPoasToken",
      "outputs": [
        {
          "internalType": "address",
          "name": "",
          "type": "address"
        }
      ],
      "stateMutability": "view",
      "type": "function"
    },
    {
      "inputs": [
        {
          "internalType": "address",
          "name": "_userId",
          "type": "address"
        }
      ],
      "name": "getReservations",
      "outputs": [
        {
          "internalType": "uint256[]",
          "name": "",
          "type": "uint256[]"
        }
      ],
      "stateMutability": "view",
      "type": "function"
    },
    {
      "inputs": [],
      "name": "getReserveToken",
      "outputs": [
        {
          "internalType": "address",
          "name": "",
          "type": "address"
        }
      ],
      "stateMutability": "view",
      "type": "function"
    },
    {
      "inputs": [],
      "name": "getTransferToken",
      "outputs": [
        {
          "internalType": "address",
          "name": "",
          "type": "address"
        }
      ],
      "stateMutability": "view",
      "type": "function"
    },
    {
      "inputs": [
        {
          "internalType": "address",
          "name": "_transferToken",
          "type": "address"
        },
        {
          "internalType": "address",
          "name": "_reserveToken",
          "type": "address"
        },
        {
          "internalType": "address",
          "name": "_poasToken",
          "type": "address"
        }
      ],
      "name": "initialize",
      "outputs": [],
      "stateMutability": "nonpayable",
      "type": "function"
    },
    {
      "inputs": [
        {
          "internalType": "address",
          "name": "_hotel",
          "type": "address"
        },
        {
          "internalType": "uint256",
          "name": "_expiryTimestamp",
          "type": "uint256"
        },
        {
          "internalType": "uint256",
          "name": "_amount",
          "type": "uint256"
        }
      ],
      "name": "makeAReservation",
      "outputs": [
        {
          "internalType": "uint256",
          "name": "_tokenId",
          "type": "uint256"
        }
      ],
      "stateMutability": "nonpayable",
      "type": "function"
    },
    {
      "inputs": [],
      "name": "owner",
      "outputs": [
        {
          "internalType": "address",
          "name": "",
          "type": "address"
        }
      ],
      "stateMutability": "view",
      "type": "function"
    },
    {
      "inputs": [],
      "name": "renounceOwnership",
      "outputs": [],
      "stateMutability": "nonpayable",
      "type": "function"
    },
    {
      "inputs": [
        {
          "internalType": "address",
          "name": "newOwner",
          "type": "address"
        }
      ],
      "name": "transferOwnership",
      "outputs": [],
      "stateMutability": "nonpayable",
      "type": "function"
    }
  ],
  "bytecode": {
    "object": "0x608060405234801561001057600080fd5b5061001a3361001f565b61006f565b600080546001600160a01b038381166001600160a01b0319831681178455604051919092169283917f8be0079c531659141344cd1fd0a4f28419497f9722a3daafe3b4186f6b6457e09190a35050565b610df58061007e6000396000f3fe6080604052600436106100dd5760003560e01c8063acbaf2961161007f578063e594203d11610059578063e594203d14610290578063f2fde38b146102ae578063f66d85e3146102ce578063ffb87146146102ee57600080fd5b8063acbaf29614610203578063acbba9b014610216578063c0c53b8b1461023657600080fd5b806350cd3fc0116100bb57806350cd3fc01461017e578063715018a61461019e5780637dc3f911146101b35780638da5cb5b146101e557600080fd5b8063132a98c0146100e257806315e57c5c1461011857806339ed3d2e1461015c575b600080fd5b3480156100ee57600080fd5b506101026100fd366004610bbf565b61030c565b60405161010f9190610be1565b60405180910390f35b34801561012457600080fd5b5061014e610133366004610bbf565b6001600160a01b031660009081526001602052604090205490565b60405190815260200161010f565b34801561016857600080fd5b5061017c610177366004610c25565b610378565b005b34801561018a57600080fd5b5061017c610199366004610bbf565b61055c565b3480156101aa57600080fd5b5061017c6105a0565b3480156101bf57600080fd5b506005546001600160a01b03165b6040516001600160a01b03909116815260200161010f565b3480156101f157600080fd5b506000546001600160a01b03166101cd565b61017c610211366004610c51565b6105b4565b34801561022257600080fd5b5061014e610231366004610bbf565b610847565b34801561024257600080fd5b5061017c610251366004610c84565b600380546001600160a01b039485166001600160a01b031991821617909155600480549385169382169390931790925560058054919093169116179055565b34801561029c57600080fd5b506004546001600160a01b03166101cd565b3480156102ba57600080fd5b5061017c6102c9366004610bbf565b6108bc565b3480156102da57600080fd5b5061014e6102e9366004610c51565b610935565b3480156102fa57600080fd5b506003546001600160a01b03166101cd565b6001600160a01b03811660009081526002602090815260409182902080548351818402810184019094528084526060939283018282801561036c57602002820191906000526020600020905b815481526020019060010190808311610358575b50505050509050919050565b60048054604051630852cd8d60e31b81529182018490526001600160a01b0316906342966c6890602401600060405180830381600087803b1580156103bc57600080fd5b505af11580156103d0573d6000803e3d6000fd5b505050506001600160a01b03811660009081526002602090815260408083208054825181850281018501909352808352919290919083018282801561043457602002820191906000526020600020905b815481526020019060010190808311610420575b5050505050905060005b81518110156104af578382828151811061045a5761045a610cc7565b60200260200101510361049d576001600160a01b038316600090815260026020526040902080548290811061049157610491610cc7565b60009182526020822001555b806104a781610cf3565b91505061043e565b506005546040516335313c2160e11b81526001600160a01b03848116600483015290911690636a627842906024016020604051808303816000875af11580156104fc573d6000803e3d6000fd5b505050506040513d601f19601f820116820180604052508101906105209190610d0c565b506040516001600160a01b0383169084907f785769eae7b812fd220fc0774c9794f0f7532f0b505139a92149f9898d73dec390600090a3505050565b6001600160a01b038116600081815260016020526040808220829055517f159ac9c0554c61aa998af70e8923c944f467145538c6c9d19b4b52f73d5d63f69190a250565b6105a8610af9565b6105b26000610b53565b565b6001600160a01b0383166106015760405162461bcd60e51b815260206004820152600f60248201526e05f746f2063616e6e6f74206265203608c1b60448201526064015b60405180910390fd5b816000036106485760405162461bcd60e51b815260206004820152601460248201527305f746f6b656e49642063616e6e6f7420626520360641b60448201526064016105f8565b6000811161068c5760405162461bcd60e51b8152602060048201526011602482015270076616c75652063616e6e6f74206265203607c1b60448201526064016105f8565b6000610699606483610d25565b6106a490605a610d47565b905060006106b28284610d66565b6003546040516323b872dd60e01b81529192506001600160a01b0316906323b872dd906106e790339089908790600401610d79565b6020604051808303816000875af1158015610706573d6000803e3d6000fd5b505050506040513d601f19601f8201168201806040525081019061072a9190610d9d565b506003546040516323b872dd60e01b81526001600160a01b03909116906323b872dd9061075f90339030908690600401610d79565b6020604051808303816000875af115801561077e573d6000803e3d6000fd5b505050506040513d601f19601f820116820180604052508101906107a29190610d9d565b50600480546040516323b872dd60e01b81526001600160a01b03909116916323b872dd916107d691899133918a9101610d79565b600060405180830381600087803b1580156107f057600080fd5b505af1158015610804573d6000803e3d6000fd5b50506040518692503391506001600160a01b038816907f34ce7bd2b920d3bd456f863698c722e43142e3929ea1e368b8021ca5097655b590600090a45050505050565b6003546040516370a0823160e01b81526001600160a01b03838116600483015260009216906370a0823190602401602060405180830381865afa158015610892573d6000803e3d6000fd5b505050506040513d601f19601f820116820180604052508101906108b69190610d0c565b92915050565b6108c4610af9565b6001600160a01b0381166109295760405162461bcd60e51b815260206004820152602660248201527f4f776e61626c653a206e6577206f776e657220697320746865207a65726f206160448201526564647265737360d01b60648201526084016105f8565b61093281610b53565b50565b60006001600160a01b0384166109825760405162461bcd60e51b815260206004820152601260248201527105f686f74656c2063616e6e6f7420626520360741b60448201526064016105f8565b6003546040516323b872dd60e01b81526001600160a01b03909116906323b872dd906109b690339088908790600401610d79565b6020604051808303816000875af11580156109d5573d6000803e3d6000fd5b505050506040513d601f19601f820116820180604052508101906109f99190610d9d565b50600480546040516340c10f1960e01b81523392810192909252602482018590526001600160a01b0316906340c10f19906044016020604051808303816000875af1158015610a4c573d6000803e3d6000fd5b505050506040513d601f19601f82011682018060405250810190610a709190610d0c565b336000908152600260209081526040808320805460018181018355918552838520018590556001600160a01b03891684529091528120805492935090610ab583610cf3565b9091555050604051819033906001600160a01b038716907fd9fd55978565b89d41b6070f9b7bd6e0919d3e12c198d00303947c0a326d30ba90600090a49392505050565b6000546001600160a01b031633146105b25760405162461bcd60e51b815260206004820181905260248201527f4f776e61626c653a2063616c6c6572206973206e6f7420746865206f776e657260448201526064016105f8565b600080546001600160a01b038381166001600160a01b0319831681178455604051919092169283917f8be0079c531659141344cd1fd0a4f28419497f9722a3daafe3b4186f6b6457e09190a35050565b80356001600160a01b0381168114610bba57600080fd5b919050565b600060208284031215610bd157600080fd5b610bda82610ba3565b9392505050565b6020808252825182820181905260009190848201906040850190845b81811015610c1957835183529284019291840191600101610bfd565b50909695505050505050565b60008060408385031215610c3857600080fd5b82359150610c4860208401610ba3565b90509250929050565b600080600060608486031215610c6657600080fd5b610c6f84610ba3565b95602085013595506040909401359392505050565b600080600060608486031215610c9957600080fd5b610ca284610ba3565b9250610cb060208501610ba3565b9150610cbe60408501610ba3565b90509250925092565b634e487b7160e01b600052603260045260246000fd5b634e487b7160e01b600052601160045260246000fd5b600060018201610d0557610d05610cdd565b5060010190565b600060208284031215610d1e57600080fd5b5051919050565b600082610d4257634e487b7160e01b600052601260045260246000fd5b500490565b6000816000190483118215151615610d6157610d61610cdd565b500290565b818103818111156108b6576108b6610cdd565b6001600160a01b039384168152919092166020820152604081019190915260600190565b600060208284031215610daf57600080fd5b81518015158114610bda57600080fdfea26469706673582212201a9a80bf75c3d557615a24d934cd68da31652dcfcae21d504edcb7a83bcdbbb864736f6c63430008100033",
    "linkReferences": {}
  },
  "methodIdentifiers": {
    "addHotel(address)": "50cd3fc0",
    "balanceOfHotel(address)": "acbba9b0",
    "burnReservation(uint256,address)": "39ed3d2e",
    "changeReservationOwner(address,uint256,uint256)": "acbaf296",
    "getHotelTransactions(address)": "15e57c5c",
    "getPoasToken()": "7dc3f911",
    "getReservations(address)": "132a98c0",
    "getReserveToken()": "e594203d",
    "getTransferToken()": "ffb87146",
    "initialize(address,address,address)": "c0c53b8b",
    "makeAReservation(address,uint256,uint256)": "f66d85e3",
    "owner()": "8da5cb5b",
    "renounceOwnership()": "715018a6",
    "transferOwnership(address)": "f2fde38b"
  },
  "id": 23
}