{
  "abi": [
    {
      "anonymous": false,
      "inputs": [
        {
          "indexed": true,
          "internalType": "address",
          "name": "hotel",
          "type": "address"
        }
      ],
      "name": "HotelAdded",
      "type": "event"
    },
    {
      "anonymous": false,
      "inputs": [
        {
          "indexed": true,
          "internalType": "address",
          "name": "previousOwner",
          "type": "address"
        },
        {
          "indexed": true,
          "internalType": "address",
          "name": "newOwner",
          "type": "address"
        }
      ],
      "name": "OwnershipTransferred",
      "type": "event"
    },
    {
      "anonymous": false,
      "inputs": [
        {
          "indexed": true,
          "internalType": "address",
          "name": "hotel",
          "type": "address"
        },
        {
          "indexed": true,
          "internalType": "address",
          "name": "user",
          "type": "address"
        },
        {
          "indexed": true,
          "internalType": "uint256",
          "name": "tokenId",
          "type": "uint256"
        }
      ],
      "name": "ReservationSuccessfully",
      "type": "event"
    },
    {
      "inputs": [
        {
          "internalType": "address",
          "name": "_hotel",
          "type": "address"
        }
      ],
      "name": "addHotel",
      "outputs": [],
      "stateMutability": "nonpayable",
      "type": "function"
    },
    {
      "inputs": [],
      "name": "approveTransfer",
      "outputs": [],
      "stateMutability": "payable",
      "type": "function"
    },
    {
      "inputs": [
        {
          "internalType": "uint256",
          "name": "_tokenId",
          "type": "uint256"
        },
        {
          "internalType": "address",
          "name": "_userId",
          "type": "address"
        }
      ],
      "name": "burnReservation",
      "outputs": [],
      "stateMutability": "nonpayable",
      "type": "function"
    },
    {
      "inputs": [
        {
          "internalType": "address",
          "name": "_transferToken",
          "type": "address"
        },
        {
          "internalType": "address",
          "name": "_reserveToken",
          "type": "address"
        }
      ],
      "name": "initialize",
      "outputs": [],
      "stateMutability": "nonpayable",
      "type": "function"
    },
    {
      "inputs": [
        {
          "internalType": "address",
          "name": "_hotel",
          "type": "address"
        },
        {
          "internalType": "uint256",
          "name": "_expiryTimestamp",
          "type": "uint256"
        }
      ],
      "name": "makeAReservation",
      "outputs": [
        {
          "internalType": "uint256",
          "name": "_tokenId",
          "type": "uint256"
        }
      ],
      "stateMutability": "payable",
      "type": "function"
    },
    {
      "inputs": [],
      "name": "owner",
      "outputs": [
        {
          "internalType": "address",
          "name": "",
          "type": "address"
        }
      ],
      "stateMutability": "view",
      "type": "function"
    },
    {
      "inputs": [],
      "name": "renounceOwnership",
      "outputs": [],
      "stateMutability": "nonpayable",
      "type": "function"
    },
    {
      "inputs": [
        {
          "internalType": "address",
          "name": "newOwner",
          "type": "address"
        }
      ],
      "name": "transferOwnership",
      "outputs": [],
      "stateMutability": "nonpayable",
      "type": "function"
    }
  ],
  "bytecode": {
    "object": "0x608060405234801561001057600080fd5b5061001a3361001f565b61006f565b600080546001600160a01b038381166001600160a01b0319831681178455604051919092169283917f8be0079c531659141344cd1fd0a4f28419497f9722a3daafe3b4186f6b6457e09190a35050565b6106c18061007e6000396000f3fe60806040526004361061007b5760003560e01c806350cd3fc01161004e57806350cd3fc0146100f0578063715018a6146101105780638da5cb5b14610125578063f2fde38b1461014d57600080fd5b80632a8d26e814610080578063354651641461008a57806339ed3d2e146100b0578063485cc955146100d0575b600080fd5b61008861016d565b005b61009d6100983660046105ae565b6101e4565b6040519081526020015b60405180910390f35b3480156100bc57600080fd5b506100886100cb3660046105d8565b61037c565b3480156100dc57600080fd5b506100886100eb366004610604565b6103dc565b3480156100fc57600080fd5b5061008861010b36600461062e565b610412565b34801561011c57600080fd5b5061008861045e565b34801561013157600080fd5b506000546040516001600160a01b0390911681526020016100a7565b34801561015957600080fd5b5061008861016836600461062e565b610472565b60035460405163095ea7b360e01b81523060048201523460248201526001600160a01b039091169063095ea7b3906044016020604051808303816000875af11580156101bd573d6000803e3d6000fd5b505050506040513d601f19601f820116820180604052508101906101e19190610650565b50565b60006001600160a01b0383166102365760405162461bcd60e51b815260206004820152601260248201527105f686f74656c2063616e6e6f7420626520360741b60448201526064015b60405180910390fd5b6003546040516323b872dd60e01b81523360048201526001600160a01b038581166024830152346044830152909116906323b872dd906064016020604051808303816000875af115801561028e573d6000803e3d6000fd5b505050506040513d601f19601f820116820180604052508101906102b29190610650565b50600480546040516340c10f1960e01b81523392810192909252602482018490526000916001600160a01b03909116906340c10f19906044016020604051808303816000875af115801561030a573d6000803e3d6000fd5b505050506040513d601f19601f8201168201806040525081019061032e9190610672565b336000818152600260205260408082208490555192935083926001600160a01b038816917fd9fd55978565b89d41b6070f9b7bd6e0919d3e12c198d00303947c0a326d30ba91a45092915050565b60048054604051630852cd8d60e31b81529182018490526001600160a01b0316906342966c6890602401600060405180830381600087803b1580156103c057600080fd5b505af11580156103d4573d6000803e3d6000fd5b505050505050565b6103e46104e8565b600380546001600160a01b039384166001600160a01b03199182161790915560048054929093169116179055565b61041a6104e8565b6001600160a01b038116600081815260016020526040808220829055517f159ac9c0554c61aa998af70e8923c944f467145538c6c9d19b4b52f73d5d63f69190a250565b6104666104e8565b6104706000610542565b565b61047a6104e8565b6001600160a01b0381166104df5760405162461bcd60e51b815260206004820152602660248201527f4f776e61626c653a206e6577206f776e657220697320746865207a65726f206160448201526564647265737360d01b606482015260840161022d565b6101e181610542565b6000546001600160a01b031633146104705760405162461bcd60e51b815260206004820181905260248201527f4f776e61626c653a2063616c6c6572206973206e6f7420746865206f776e6572604482015260640161022d565b600080546001600160a01b038381166001600160a01b0319831681178455604051919092169283917f8be0079c531659141344cd1fd0a4f28419497f9722a3daafe3b4186f6b6457e09190a35050565b80356001600160a01b03811681146105a957600080fd5b919050565b600080604083850312156105c157600080fd5b6105ca83610592565b946020939093013593505050565b600080604083850312156105eb57600080fd5b823591506105fb60208401610592565b90509250929050565b6000806040838503121561061757600080fd5b61062083610592565b91506105fb60208401610592565b60006020828403121561064057600080fd5b61064982610592565b9392505050565b60006020828403121561066257600080fd5b8151801515811461064957600080fd5b60006020828403121561068457600080fd5b505191905056fea26469706673582212207665d0f9b3d90054912705af5647e10953969de57d5e1c0c594b8878b1e0875464736f6c63430008100033",
    "linkReferences": {}
  },
  "methodIdentifiers": {
    "addHotel(address)": "50cd3fc0",
    "approveTransfer()": "2a8d26e8",
    "burnReservation(uint256,address)": "39ed3d2e",
    "initialize(address,address)": "485cc955",
    "makeAReservation(address,uint256)": "35465164",
    "owner()": "8da5cb5b",
    "renounceOwnership()": "715018a6",
    "transferOwnership(address)": "f2fde38b"
  },
  "id": 13
}