{
  "abi": [
    {
      "anonymous": false,
      "inputs": [
        {
          "indexed": true,
          "internalType": "address",
          "name": "previousOwner",
          "type": "address"
        },
        {
          "indexed": true,
          "internalType": "address",
          "name": "newOwner",
          "type": "address"
        },
        {
          "indexed": true,
          "internalType": "uint256",
          "name": "tokenId",
          "type": "uint256"
        }
      ],
      "name": "ChangeReservationOwner",
      "type": "event"
    },
    {
      "anonymous": false,
      "inputs": [
        {
          "indexed": true,
          "internalType": "address",
          "name": "hotel",
          "type": "address"
        }
      ],
      "name": "HotelAdded",
      "type": "event"
    },
    {
      "anonymous": false,
      "inputs": [
        {
          "indexed": true,
          "internalType": "address",
          "name": "previousOwner",
          "type": "address"
        },
        {
          "indexed": true,
          "internalType": "address",
          "name": "newOwner",
          "type": "address"
        }
      ],
      "name": "OwnershipTransferred",
      "type": "event"
    },
    {
      "anonymous": false,
      "inputs": [
        {
          "indexed": true,
          "internalType": "address",
          "name": "hotel",
          "type": "address"
        },
        {
          "indexed": true,
          "internalType": "address",
          "name": "user",
          "type": "address"
        },
        {
          "indexed": true,
          "internalType": "uint256",
          "name": "tokenId",
          "type": "uint256"
        }
      ],
      "name": "ReservationSuccessfully",
      "type": "event"
    },
    {
      "inputs": [
        {
          "internalType": "address",
          "name": "_hotel",
          "type": "address"
        }
      ],
      "name": "addHotel",
      "outputs": [],
      "stateMutability": "nonpayable",
      "type": "function"
    },
    {
      "inputs": [
        {
          "internalType": "address",
          "name": "_hotel",
          "type": "address"
        }
      ],
      "name": "balanceOfHotel",
      "outputs": [
        {
          "internalType": "uint256",
          "name": "",
          "type": "uint256"
        }
      ],
      "stateMutability": "view",
      "type": "function"
    },
    {
      "inputs": [
        {
          "internalType": "uint256",
          "name": "_tokenId",
          "type": "uint256"
        },
        {
          "internalType": "address",
          "name": "_userId",
          "type": "address"
        }
      ],
      "name": "burnReservation",
      "outputs": [],
      "stateMutability": "nonpayable",
      "type": "function"
    },
    {
      "inputs": [
        {
          "internalType": "address",
          "name": "_previousOwner",
          "type": "address"
        },
        {
          "internalType": "uint256",
          "name": "_tokenId",
          "type": "uint256"
        },
        {
          "internalType": "uint256",
          "name": "_amount",
          "type": "uint256"
        }
      ],
      "name": "changeReservationOwner",
      "outputs": [],
      "stateMutability": "payable",
      "type": "function"
    },
    {
      "inputs": [
        {
          "internalType": "address",
          "name": "_userId",
          "type": "address"
        }
      ],
      "name": "getReservations",
      "outputs": [
        {
          "internalType": "uint256[]",
          "name": "",
          "type": "uint256[]"
        }
      ],
      "stateMutability": "view",
      "type": "function"
    },
    {
      "inputs": [
        {
          "internalType": "address",
          "name": "_transferToken",
          "type": "address"
        },
        {
          "internalType": "address",
          "name": "_reserveToken",
          "type": "address"
        },
        {
          "internalType": "address",
          "name": "_poasToken",
          "type": "address"
        }
      ],
      "name": "initialize",
      "outputs": [],
      "stateMutability": "nonpayable",
      "type": "function"
    },
    {
      "inputs": [
        {
          "internalType": "address",
          "name": "_hotel",
          "type": "address"
        },
        {
          "internalType": "uint256",
          "name": "_expiryTimestamp",
          "type": "uint256"
        },
        {
          "internalType": "uint256",
          "name": "_amount",
          "type": "uint256"
        }
      ],
      "name": "makeAReservation",
      "outputs": [
        {
          "internalType": "uint256",
          "name": "_tokenId",
          "type": "uint256"
        }
      ],
      "stateMutability": "nonpayable",
      "type": "function"
    },
    {
      "inputs": [],
      "name": "owner",
      "outputs": [
        {
          "internalType": "address",
          "name": "",
          "type": "address"
        }
      ],
      "stateMutability": "view",
      "type": "function"
    },
    {
      "inputs": [],
      "name": "renounceOwnership",
      "outputs": [],
      "stateMutability": "nonpayable",
      "type": "function"
    },
    {
      "inputs": [
        {
          "internalType": "address",
          "name": "newOwner",
          "type": "address"
        }
      ],
      "name": "transferOwnership",
      "outputs": [],
      "stateMutability": "nonpayable",
      "type": "function"
    }
  ],
  "bytecode": {
    "object": "0x608060405234801561001057600080fd5b5061001a3361001f565b61006f565b600080546001600160a01b038381166001600160a01b0319831681178455604051919092169283917f8be0079c531659141344cd1fd0a4f28419497f9722a3daafe3b4186f6b6457e09190a35050565b610cee8061007e6000396000f3fe6080604052600436106100915760003560e01c8063acbaf29611610059578063acbaf2961461014b578063acbba9b01461015e578063c0c53b8b1461018c578063f2fde38b146101ac578063f66d85e3146101cc57600080fd5b8063132a98c01461009657806339ed3d2e146100cc57806350cd3fc0146100ee578063715018a61461010e5780638da5cb5b14610123575b600080fd5b3480156100a257600080fd5b506100b66100b1366004610ab8565b6101ec565b6040516100c39190610ada565b60405180910390f35b3480156100d857600080fd5b506100ec6100e7366004610b1e565b610258565b005b3480156100fa57600080fd5b506100ec610109366004610ab8565b610406565b34801561011a57600080fd5b506100ec610452565b34801561012f57600080fd5b506000546040516001600160a01b0390911681526020016100c3565b6100ec610159366004610b4a565b610466565b34801561016a57600080fd5b5061017e610179366004610ab8565b6106f9565b6040519081526020016100c3565b34801561019857600080fd5b506100ec6101a7366004610b7d565b61076e565b3480156101b857600080fd5b506100ec6101c7366004610ab8565b6107b5565b3480156101d857600080fd5b5061017e6101e7366004610b4a565b61082e565b6001600160a01b03811660009081526002602090815260409182902080548351818402810184019094528084526060939283018282801561024c57602002820191906000526020600020905b815481526020019060010190808311610238575b50505050509050919050565b60048054604051630852cd8d60e31b81529182018490526001600160a01b0316906342966c6890602401600060405180830381600087803b15801561029c57600080fd5b505af11580156102b0573d6000803e3d6000fd5b505050506001600160a01b03811660009081526002602090815260408083208054825181850281018501909352808352919290919083018282801561031457602002820191906000526020600020905b815481526020019060010190808311610300575b5050505050905060005b815181101561038f578382828151811061033a5761033a610bc0565b60200260200101510361037d576001600160a01b038316600090815260026020526040902080548290811061037157610371610bc0565b60009182526020822001555b8061038781610bec565b91505061031e565b506005546040516335313c2160e11b81526001600160a01b03848116600483015290911690636a627842906024016020604051808303816000875af11580156103dc573d6000803e3d6000fd5b505050506040513d601f19601f820116820180604052508101906104009190610c05565b50505050565b61040e6109f2565b6001600160a01b038116600081815260016020526040808220829055517f159ac9c0554c61aa998af70e8923c944f467145538c6c9d19b4b52f73d5d63f69190a250565b61045a6109f2565b6104646000610a4c565b565b6001600160a01b0383166104b35760405162461bcd60e51b815260206004820152600f60248201526e05f746f2063616e6e6f74206265203608c1b60448201526064015b60405180910390fd5b816000036104fa5760405162461bcd60e51b815260206004820152601460248201527305f746f6b656e49642063616e6e6f7420626520360641b60448201526064016104aa565b6000811161053e5760405162461bcd60e51b8152602060048201526011602482015270076616c75652063616e6e6f74206265203607c1b60448201526064016104aa565b600061054b606483610c1e565b61055690605a610c40565b905060006105648284610c5f565b6003546040516323b872dd60e01b81529192506001600160a01b0316906323b872dd9061059990339089908790600401610c72565b6020604051808303816000875af11580156105b8573d6000803e3d6000fd5b505050506040513d601f19601f820116820180604052508101906105dc9190610c96565b506003546040516323b872dd60e01b81526001600160a01b03909116906323b872dd9061061190339030908690600401610c72565b6020604051808303816000875af1158015610630573d6000803e3d6000fd5b505050506040513d601f19601f820116820180604052508101906106549190610c96565b50600480546040516323b872dd60e01b81526001600160a01b03909116916323b872dd9161068891899133918a9101610c72565b600060405180830381600087803b1580156106a257600080fd5b505af11580156106b6573d6000803e3d6000fd5b50506040518692503391506001600160a01b038816907f34ce7bd2b920d3bd456f863698c722e43142e3929ea1e368b8021ca5097655b590600090a45050505050565b6003546040516370a0823160e01b81526001600160a01b03838116600483015260009216906370a0823190602401602060405180830381865afa158015610744573d6000803e3d6000fd5b505050506040513d601f19601f820116820180604052508101906107689190610c05565b92915050565b6107766109f2565b600380546001600160a01b039485166001600160a01b031991821617909155600480549385169382169390931790925560058054919093169116179055565b6107bd6109f2565b6001600160a01b0381166108225760405162461bcd60e51b815260206004820152602660248201527f4f776e61626c653a206e6577206f776e657220697320746865207a65726f206160448201526564647265737360d01b60648201526084016104aa565b61082b81610a4c565b50565b60006001600160a01b03841661087b5760405162461bcd60e51b815260206004820152601260248201527105f686f74656c2063616e6e6f7420626520360741b60448201526064016104aa565b6003546040516323b872dd60e01b81526001600160a01b03909116906323b872dd906108af90339088908790600401610c72565b6020604051808303816000875af11580156108ce573d6000803e3d6000fd5b505050506040513d601f19601f820116820180604052508101906108f29190610c96565b50600480546040516340c10f1960e01b81523392810192909252602482018590526001600160a01b0316906340c10f19906044016020604051808303816000875af1158015610945573d6000803e3d6000fd5b505050506040513d601f19601f820116820180604052508101906109699190610c05565b336000908152600260209081526040808320805460018181018355918552838520018590556001600160a01b038916845290915281208054929350906109ae83610bec565b9091555050604051819033906001600160a01b038716907fd9fd55978565b89d41b6070f9b7bd6e0919d3e12c198d00303947c0a326d30ba90600090a49392505050565b6000546001600160a01b031633146104645760405162461bcd60e51b815260206004820181905260248201527f4f776e61626c653a2063616c6c6572206973206e6f7420746865206f776e657260448201526064016104aa565b600080546001600160a01b038381166001600160a01b0319831681178455604051919092169283917f8be0079c531659141344cd1fd0a4f28419497f9722a3daafe3b4186f6b6457e09190a35050565b80356001600160a01b0381168114610ab357600080fd5b919050565b600060208284031215610aca57600080fd5b610ad382610a9c565b9392505050565b6020808252825182820181905260009190848201906040850190845b81811015610b1257835183529284019291840191600101610af6565b50909695505050505050565b60008060408385031215610b3157600080fd5b82359150610b4160208401610a9c565b90509250929050565b600080600060608486031215610b5f57600080fd5b610b6884610a9c565b95602085013595506040909401359392505050565b600080600060608486031215610b9257600080fd5b610b9b84610a9c565b9250610ba960208501610a9c565b9150610bb760408501610a9c565b90509250925092565b634e487b7160e01b600052603260045260246000fd5b634e487b7160e01b600052601160045260246000fd5b600060018201610bfe57610bfe610bd6565b5060010190565b600060208284031215610c1757600080fd5b5051919050565b600082610c3b57634e487b7160e01b600052601260045260246000fd5b500490565b6000816000190483118215151615610c5a57610c5a610bd6565b500290565b8181038181111561076857610768610bd6565b6001600160a01b039384168152919092166020820152604081019190915260600190565b600060208284031215610ca857600080fd5b81518015158114610ad357600080fdfea264697066735822122085f2ecd2e4c426dd1dac93307043bb92ceeb3276329d7ae4f504a1ff1338e4fc64736f6c63430008100033",
    "linkReferences": {}
  },
  "methodIdentifiers": {
    "addHotel(address)": "50cd3fc0",
    "balanceOfHotel(address)": "acbba9b0",
    "burnReservation(uint256,address)": "39ed3d2e",
    "changeReservationOwner(address,uint256,uint256)": "acbaf296",
    "getReservations(address)": "132a98c0",
    "initialize(address,address,address)": "c0c53b8b",
    "makeAReservation(address,uint256,uint256)": "f66d85e3",
    "owner()": "8da5cb5b",
    "renounceOwnership()": "715018a6",
    "transferOwnership(address)": "f2fde38b"
  },
  "id": 22
}